{
  "address": "0x8fF40FA64713945acdC05d0bbeA584b85aE4d1b5",
  "abi": [
    {
      "inputs": [
        {
          "internalType": "address",
          "name": "_router",
          "type": "address"
        },
        {
          "internalType": "address",
          "name": "_mate",
          "type": "address"
        },
        {
          "internalType": "address",
          "name": "_feeTo",
          "type": "address"
        }
      ],
      "stateMutability": "nonpayable",
      "type": "constructor"
    },
    {
      "anonymous": false,
      "inputs": [
        {
          "indexed": false,
          "internalType": "uint256",
          "name": "executorFeeNumerator",
          "type": "uint256"
        },
        {
          "indexed": false,
          "internalType": "uint256",
          "name": "timestamp",
          "type": "uint256"
        }
      ],
      "name": "ExecutorFeeSet",
      "type": "event"
    },
    {
      "anonymous": false,
      "inputs": [
        {
          "indexed": false,
          "internalType": "uint256",
          "name": "feeNumerator",
          "type": "uint256"
        },
        {
          "indexed": false,
          "internalType": "uint256",
          "name": "timestamp",
          "type": "uint256"
        }
      ],
      "name": "FeeSet",
      "type": "event"
    },
    {
      "anonymous": false,
      "inputs": [
        {
          "indexed": false,
          "internalType": "address",
          "name": "feeTo",
          "type": "address"
        },
        {
          "indexed": false,
          "internalType": "uint256",
          "name": "timestamp",
          "type": "uint256"
        }
      ],
      "name": "FeeToSet",
      "type": "event"
    },
    {
      "anonymous": false,
      "inputs": [
        {
          "indexed": true,
          "internalType": "bytes32",
          "name": "orderId",
          "type": "bytes32"
        },
        {
          "indexed": false,
          "internalType": "uint256",
          "name": "timestamp",
          "type": "uint256"
        }
      ],
      "name": "OrderCanceled",
      "type": "event"
    },
    {
      "anonymous": false,
      "inputs": [
        {
          "indexed": true,
          "internalType": "bytes32",
          "name": "orderId",
          "type": "bytes32"
        },
        {
          "indexed": true,
          "internalType": "address",
          "name": "executor",
          "type": "address"
        },
        {
          "indexed": false,
          "internalType": "uint256",
          "name": "timestamp",
          "type": "uint256"
        }
      ],
      "name": "OrderExecuted",
      "type": "event"
    },
    {
      "anonymous": false,
      "inputs": [
        {
          "indexed": true,
          "internalType": "bytes32",
          "name": "orderId",
          "type": "bytes32"
        },
        {
          "indexed": false,
          "internalType": "address",
          "name": "tokenIn",
          "type": "address"
        },
        {
          "indexed": false,
          "internalType": "address",
          "name": "tokenOut",
          "type": "address"
        },
        {
          "indexed": false,
          "internalType": "uint256",
          "name": "amountIn",
          "type": "uint256"
        },
        {
          "indexed": false,
          "internalType": "uint256",
          "name": "amountOutMin",
          "type": "uint256"
        },
        {
          "indexed": true,
          "internalType": "address",
          "name": "recipient",
          "type": "address"
        },
        {
          "indexed": true,
          "internalType": "address",
          "name": "creator",
          "type": "address"
        },
        {
          "indexed": false,
          "internalType": "uint256",
          "name": "expiration",
          "type": "uint256"
        },
        {
          "indexed": false,
          "internalType": "uint256",
          "name": "timestamp",
          "type": "uint256"
        }
      ],
      "name": "OrderPlaced",
      "type": "event"
    },
    {
      "anonymous": false,
      "inputs": [
        {
          "indexed": true,
          "internalType": "address",
          "name": "previousOwner",
          "type": "address"
        },
        {
          "indexed": true,
          "internalType": "address",
          "name": "newOwner",
          "type": "address"
        }
      ],
      "name": "OwnershipTransferred",
      "type": "event"
    },
    {
      "inputs": [],
      "name": "DENOMINATOR",
      "outputs": [
        {
          "internalType": "uint256",
          "name": "",
          "type": "uint256"
        }
      ],
      "stateMutability": "view",
      "type": "function"
    },
    {
      "inputs": [
        {
          "internalType": "uint256",
          "name": "_amount",
          "type": "uint256"
        }
      ],
      "name": "calculateFees",
      "outputs": [
        {
          "internalType": "uint256",
          "name": "fee",
          "type": "uint256"
        },
        {
          "internalType": "uint256",
          "name": "executorFee",
          "type": "uint256"
        }
      ],
      "stateMutability": "view",
      "type": "function"
    },
    {
      "inputs": [
        {
          "internalType": "bytes32",
          "name": "_orderId",
          "type": "bytes32"
        },
        {
          "internalType": "address[]",
          "name": "_pathToTokenOut",
          "type": "address[]"
        }
      ],
      "name": "canExecuteOrder",
      "outputs": [
        {
          "internalType": "bool",
          "name": "success",
          "type": "bool"
        },
        {
          "internalType": "string",
          "name": "reason",
          "type": "string"
        }
      ],
      "stateMutability": "view",
      "type": "function"
    },
    {
      "inputs": [
        {
          "internalType": "bytes32",
          "name": "_orderId",
          "type": "bytes32"
        },
        {
          "internalType": "address[]",
          "name": "_pathToTokenOut",
          "type": "address[]"
        },
        {
          "internalType": "address[]",
          "name": "_pathToMate",
          "type": "address[]"
        }
      ],
      "name": "canExecuteOrder",
      "outputs": [
        {
          "internalType": "bool",
          "name": "success",
          "type": "bool"
        },
        {
          "internalType": "string",
          "name": "reason",
          "type": "string"
        }
      ],
      "stateMutability": "view",
      "type": "function"
    },
    {
      "inputs": [
        {
          "internalType": "bytes32",
          "name": "_orderId",
          "type": "bytes32"
        }
      ],
      "name": "cancelOrder",
      "outputs": [],
      "stateMutability": "nonpayable",
      "type": "function"
    },
    {
      "inputs": [
        {
          "internalType": "bytes32",
          "name": "_orderId",
          "type": "bytes32"
        },
        {
          "internalType": "address[]",
          "name": "_pathToTokenOut",
          "type": "address[]"
        },
        {
          "internalType": "address[]",
          "name": "_pathToMate",
          "type": "address[]"
        }
      ],
      "name": "executeOrder",
      "outputs": [],
      "stateMutability": "nonpayable",
      "type": "function"
    },
    {
      "inputs": [
        {
          "internalType": "bytes32",
          "name": "_orderId",
          "type": "bytes32"
        },
        {
          "internalType": "address[]",
          "name": "_pathToTokenOut",
          "type": "address[]"
        }
      ],
      "name": "executeOrder",
      "outputs": [],
      "stateMutability": "nonpayable",
      "type": "function"
    },
    {
      "inputs": [],
      "name": "executorFeeNumerator",
      "outputs": [
        {
          "internalType": "uint256",
          "name": "",
          "type": "uint256"
        }
      ],
      "stateMutability": "view",
      "type": "function"
    },
    {
      "inputs": [],
      "name": "factory",
      "outputs": [
        {
          "internalType": "contract IUniswapV2Factory",
          "name": "",
          "type": "address"
        }
      ],
      "stateMutability": "view",
      "type": "function"
    },
    {
      "inputs": [],
      "name": "feeNumerator",
      "outputs": [
        {
          "internalType": "uint256",
          "name": "",
          "type": "uint256"
        }
      ],
      "stateMutability": "view",
      "type": "function"
    },
    {
      "inputs": [],
      "name": "feeTo",
      "outputs": [
        {
          "internalType": "address",
          "name": "",
          "type": "address"
        }
      ],
      "stateMutability": "view",
      "type": "function"
    },
    {
      "inputs": [
        {
          "internalType": "uint256",
          "name": "_amountIn",
          "type": "uint256"
        },
        {
          "internalType": "address[]",
          "name": "_path",
          "type": "address[]"
        }
      ],
      "name": "getAmountOutMin",
      "outputs": [
        {
          "internalType": "uint256",
          "name": "",
          "type": "uint256"
        }
      ],
      "stateMutability": "view",
      "type": "function"
    },
    {
      "inputs": [
        {
          "internalType": "address",
          "name": "_addr",
          "type": "address"
        }
      ],
      "name": "getNonce",
      "outputs": [
        {
          "internalType": "uint256",
          "name": "",
          "type": "uint256"
        }
      ],
      "stateMutability": "view",
      "type": "function"
    },
    {
      "inputs": [],
      "name": "getOpenOrders",
      "outputs": [
        {
          "internalType": "bytes32[]",
          "name": "",
          "type": "bytes32[]"
        }
      ],
      "stateMutability": "view",
      "type": "function"
    },
    {
      "inputs": [
        {
          "internalType": "bytes32",
          "name": "_orderId",
          "type": "bytes32"
        }
      ],
      "name": "getOrder",
      "outputs": [
        {
          "internalType": "bytes32",
          "name": "id",
          "type": "bytes32"
        },
        {
          "internalType": "address",
          "name": "tokenIn",
          "type": "address"
        },
        {
          "internalType": "address",
          "name": "tokenOut",
          "type": "address"
        },
        {
          "internalType": "uint256",
          "name": "amountIn",
          "type": "uint256"
        },
        {
          "internalType": "uint256",
          "name": "amountOutMin",
          "type": "uint256"
        },
        {
          "internalType": "address",
          "name": "recipient",
          "type": "address"
        },
        {
          "internalType": "address",
          "name": "creator",
          "type": "address"
        },
        {
          "internalType": "uint256",
          "name": "createdAt",
          "type": "uint256"
        },
        {
          "internalType": "uint256",
          "name": "expiration",
          "type": "uint256"
        },
        {
          "internalType": "uint8",
          "name": "status",
          "type": "uint8"
        }
      ],
      "stateMutability": "view",
      "type": "function"
    },
    {
      "inputs": [
        {
          "internalType": "address",
          "name": "_tokenIn",
          "type": "address"
        },
        {
          "internalType": "address",
          "name": "_tokenOut",
          "type": "address"
        }
      ],
      "name": "getReserves",
      "outputs": [
        {
          "internalType": "uint256",
          "name": "reserveIn",
          "type": "uint256"
        },
        {
          "internalType": "uint256",
          "name": "reserveOut",
          "type": "uint256"
        }
      ],
      "stateMutability": "view",
      "type": "function"
    },
    {
      "inputs": [
        {
          "internalType": "bytes32",
          "name": "_orderId",
          "type": "bytes32"
        }
      ],
      "name": "getStatus",
      "outputs": [
        {
          "internalType": "enum OrderBook.Status",
          "name": "",
          "type": "uint8"
        }
      ],
      "stateMutability": "view",
      "type": "function"
    },
    {
      "inputs": [
        {
          "internalType": "bytes32",
          "name": "_orderId",
          "type": "bytes32"
        }
      ],
      "name": "isExpiredOrder",
      "outputs": [
        {
          "internalType": "bool",
          "name": "",
          "type": "bool"
        }
      ],
      "stateMutability": "view",
      "type": "function"
    },
    {
      "inputs": [],
      "name": "mate",
      "outputs": [
        {
          "internalType": "address",
          "name": "",
          "type": "address"
        }
      ],
      "stateMutability": "view",
      "type": "function"
    },
    {
      "inputs": [
        {
          "internalType": "uint256",
          "name": "",
          "type": "uint256"
        }
      ],
      "name": "openOrders",
      "outputs": [
        {
          "internalType": "bytes32",
          "name": "",
          "type": "bytes32"
        }
      ],
      "stateMutability": "view",
      "type": "function"
    },
    {
      "inputs": [
        {
          "internalType": "bytes32",
          "name": "",
          "type": "bytes32"
        }
      ],
      "name": "orders",
      "outputs": [
        {
          "internalType": "bytes32",
          "name": "id",
          "type": "bytes32"
        },
        {
          "internalType": "address",
          "name": "tokenIn",
          "type": "address"
        },
        {
          "internalType": "address",
          "name": "tokenOut",
          "type": "address"
        },
        {
          "internalType": "uint256",
          "name": "amountIn",
          "type": "uint256"
        },
        {
          "internalType": "uint256",
          "name": "amountOutMin",
          "type": "uint256"
        },
        {
          "internalType": "address",
          "name": "recipient",
          "type": "address"
        },
        {
          "internalType": "address",
          "name": "creator",
          "type": "address"
        },
        {
          "internalType": "uint256",
          "name": "createdAt",
          "type": "uint256"
        },
        {
          "internalType": "uint256",
          "name": "expiration",
          "type": "uint256"
        },
        {
          "internalType": "enum OrderBook.Status",
          "name": "status",
          "type": "uint8"
        }
      ],
      "stateMutability": "view",
      "type": "function"
    },
    {
      "inputs": [],
      "name": "owner",
      "outputs": [
        {
          "internalType": "address",
          "name": "",
          "type": "address"
        }
      ],
      "stateMutability": "view",
      "type": "function"
    },
    {
      "inputs": [
        {
          "internalType": "address",
          "name": "_tokenIn",
          "type": "address"
        },
        {
          "internalType": "address",
          "name": "_tokenOut",
          "type": "address"
        },
        {
          "internalType": "uint256",
          "name": "_amountIn",
          "type": "uint256"
        },
        {
          "internalType": "uint256",
          "name": "_amountOutMin",
          "type": "uint256"
        },
        {
          "internalType": "address",
          "name": "_recipient",
          "type": "address"
        },
        {
          "internalType": "uint256",
          "name": "_expiration",
          "type": "uint256"
        }
      ],
      "name": "placeOrder",
      "outputs": [],
      "stateMutability": "nonpayable",
      "type": "function"
    },
    {
      "inputs": [],
      "name": "renounceOwnership",
      "outputs": [],
      "stateMutability": "nonpayable",
      "type": "function"
    },
    {
      "inputs": [],
      "name": "router",
      "outputs": [
        {
          "internalType": "contract IUniswapV2Router02",
          "name": "",
          "type": "address"
        }
      ],
      "stateMutability": "view",
      "type": "function"
    },
    {
      "inputs": [
        {
          "internalType": "uint256",
          "name": "_executorFeeNumerator",
          "type": "uint256"
        }
      ],
      "name": "setExecutorFeeNumerator",
      "outputs": [],
      "stateMutability": "nonpayable",
      "type": "function"
    },
    {
      "inputs": [
        {
          "internalType": "uint256",
          "name": "_feeNumerator",
          "type": "uint256"
        }
      ],
      "name": "setFeeNumerator",
      "outputs": [],
      "stateMutability": "nonpayable",
      "type": "function"
    },
    {
      "inputs": [
        {
          "internalType": "address",
          "name": "_feeTo",
          "type": "address"
        }
      ],
      "name": "setFeeTo",
      "outputs": [],
      "stateMutability": "nonpayable",
      "type": "function"
    },
    {
      "inputs": [
        {
          "internalType": "address",
          "name": "newOwner",
          "type": "address"
        }
      ],
      "name": "transferOwnership",
      "outputs": [],
      "stateMutability": "nonpayable",
      "type": "function"
    }
  ],
  "transactionHash": "0x957ac7abc91c26abab0af83ce1e39a8e4b9980e379e26183bbd71dd0879b922a",
  "args": [
    "0x9ac64cc6e4415144c455bd8e4837fea55603e5c3",
    "0x854DBfF095F0dF750ee97Dd724f474856647FA85",
    "0x8C2CD3357Ba752CefB408a7C2577d78a285A56F9"
  ],
  "solcInputHash": "1baa06074231494aaf8b35b79328fb63",
  "bytecode": "0x60a0604052600f60065560056007553480156200001b57600080fd5b5060405162002cc738038062002cc78339810160408190526200003e91620001b6565b620000493362000123565b6001600955600080546001600160a01b0319166001600160a01b0385169081179091556040805163c45a015560e01b8152905163c45a015591600480820192602092909190829003018186803b158015620000a357600080fd5b505afa158015620000b8573d6000803e3d6000fd5b505050506040513d601f19601f82011682018060405250810190620000de919062000192565b600180546001600160a01b03199081166001600160a01b039384161790915560609390931b6001600160601b03191660805260088054909316911617905550620001ff565b600580546001600160a01b038381166001600160a01b0319831681179093556040519116919082907f8be0079c531659141344cd1fd0a4f28419497f9722a3daafe3b4186f6b6457e090600090a35050565b80516001600160a01b03811681146200018d57600080fd5b919050565b600060208284031215620001a4578081fd5b620001af8262000175565b9392505050565b600080600060608486031215620001cb578182fd5b620001d68462000175565b9250620001e66020850162000175565b9150620001f66040850162000175565b90509250925092565b60805160601c612a866200024160003960008181610209015281816114ae0152818161153b01528181611ad701528181611b640152611f9f0152612a866000f3fe608060405234801561001057600080fd5b50600436106101cf5760003560e01c8063918f867411610104578063cbe20693116100a2578063e86dea4a11610071578063e86dea4a14610515578063f2fde38b1461051e578063f46901ed14610531578063f887ea401461054457600080fd5b8063cbe20693146104c7578063d22607f5146104da578063d52bb6f4146104ed578063dbe5bab51461050057600080fd5b806399eaa23d116100de57806399eaa23d1461040e5780639c3f1e9014610417578063a45db911146104a1578063c45a0155146104b457600080fd5b8063918f8674146103bc578063938815d1146103c557806395c8036d146103fb57600080fd5b80635778472a11610171578063715018a61161014b578063715018a61461037d5780637489ec23146103855780638d3fc49d146103985780638da5cb5b146103ab57600080fd5b80635778472a146102c55780635de28ae01461033c5780635e0c5f551461035c57600080fd5b8063447c1e8c116101ad578063447c1e8c14610262578063483344291461027557806352238fdd146102885780635762d126146102b057600080fd5b8063017e7e58146101d45780630a5cc93d146102045780632d0335ab1461022b575b600080fd5b6008546101e7906001600160a01b031681565b6040516001600160a01b0390911681526020015b60405180910390f35b6101e77f000000000000000000000000000000000000000000000000000000000000000081565b61025461023936600461242f565b6001600160a01b031660009081526003602052604090205490565b6040519081526020016101fb565b6102546102703660046125b8565b610557565b6102546102833660046125d0565b610578565b61029b6102963660046125b8565b610640565b604080519283526020830191909152016101fb565b6102c36102be366004612615565b610682565b005b6102d86102d33660046125b8565b610692565b604080519a8b526001600160a01b03998a1660208c0152978916978a01979097526060890195909552608088019390935290851660a087015290931660c085015260e084019290925261010083019190915260ff16610120820152610140016101fb565b61034f61034a3660046125b8565b610729565b6040516101fb919061285a565b61036f61036a3660046125d0565b610787565b6040516101fb9291906127d6565b6102c36107b2565b6102c36103933660046125b8565b6107f1565b6102c36103a63660046125d0565b610960565b6005546001600160a01b03166101e7565b61025461271081565b6103eb6103d33660046125b8565b60009081526002602052604090206008015442101590565b60405190151581526020016101fb565b6102c361040936600461249f565b610980565b61025460065481565b61048b6104253660046125b8565b6002602081905260009182526040909120805460018201549282015460038301546004840154600585015460068601546007870154600888015460099098015496986001600160a01b039081169896811697959694959381169492169290919060ff168a565b6040516101fb9a999897969594939291906127f1565b6102c36104af3660046125b8565b610cfa565b6001546101e7906001600160a01b031681565b6102c36104d53660046125b8565b610d65565b61036f6104e8366004612615565b610dc9565b61029b6104fb366004612467565b610de5565b610508610f2f565b6040516101fb9190612792565b61025460075481565b6102c361052c36600461242f565b610f87565b6102c361053f36600461242f565b611022565b6000546101e7906001600160a01b031681565b6004818154811061056757600080fd5b600091825260209091200154905081565b6000805460405163d06ca61f60e01b815282916001600160a01b03169063d06ca61f906105ab90879087906004016128b0565b60006040518083038186803b1580156105c357600080fd5b505afa1580156105d7573d6000803e3d6000fd5b505050506040513d6000823e601f3d908101601f191682016040526105ff9190810190612505565b9050806001845161061091906129b1565b8151811061062e57634e487b7160e01b600052603260045260246000fd5b60200260200101519150505b92915050565b600080612710600754846106549190612992565b61065e9190612972565b9150612710600654846106719190612992565b61067b9190612972565b9050915091565b61068d8383836110ee565b505050565b6000818152600260208190526040822080546001820154928201546003808401546004850154600586015460078701546006880154600889015460098a0154989b6001600160a01b039b8c169b9889169a9699959894851697929094169592949093929160ff9091169081111561071957634e487b7160e01b600052602160045260246000fd5b9150509193959799509193959799565b60008181526002602052604081206001600982015460ff16600381111561076057634e487b7160e01b600052602160045260246000fd5b141561077a578060080154421061077a5750600092915050565b6009015460ff1692915050565b604080516000808252602082019092526060906107a79085908590611784565b915091509250929050565b6005546001600160a01b031633146107e55760405162461bcd60e51b81526004016107dc9061287b565b60405180910390fd5b6107ef6000611cce565b565b600081815260026020526040902060068101546001600160a01b031633146108505760405162461bcd60e51b815260206004820152601260248201527127b7363c9037b93232b91031b932b0ba37b960711b60448201526064016107dc565b6001600982015460ff16600381111561087957634e487b7160e01b600052602160045260246000fd5b146108c65760405162461bcd60e51b815260206004820152601a60248201527f43616e6e6f742063616e63656c20756e6f70656e206f7264657200000000000060448201526064016107dc565b600081600701541161090a5760405162461bcd60e51b815260206004820152600d60248201526c24b73b30b634b21037b93232b960991b60448201526064016107dc565b60098101805460ff1916600317905561092282611d20565b817f87b5f0afdc3a118b68246141c5bd338672ab3e901be636e27116238d284de6ac4260405161095491815260200190565b60405180910390a25050565b60408051600081526020810190915261097c90839083906110ee565b5050565b6001600160a01b0386166109d65760405162461bcd60e51b815260206004820152601b60248201527f496e76616c696420696e70757420746f6b656e2061646472657373000000000060448201526064016107dc565b6001600160a01b038516610a2c5760405162461bcd60e51b815260206004820152601c60248201527f496e76616c6964206f757470757420746f6b656e20616464726573730000000060448201526064016107dc565b60008411610a735760405162461bcd60e51b8152602060048201526014602482015273125b9d985b1a59081a5b9c1d5d08185b5bdd5b9d60621b60448201526064016107dc565b60008311610abb5760405162461bcd60e51b8152602060048201526015602482015274125b9d985b1a59081bdd5d1c1d5d08185b5bdd5b9d605a1b60448201526064016107dc565b6001600160a01b038216610b115760405162461bcd60e51b815260206004820152601960248201527f496e76616c696420726563697069656e7420616464726573730000000000000060448201526064016107dc565b428111610b605760405162461bcd60e51b815260206004820152601c60248201527f496e76616c69642065787069726174696f6e2074696d657374616d700000000060448201526064016107dc565b33600081815260036020526040812080549192919083610b7f836129f4565b9091555060405160609290921b6bffffffffffffffffffffffff19166020830152603482015260540160408051601f1981840301815291815281516020928301206000818152600293849052919091208181556001810180546001600160a01b03808d166001600160a01b03199283161790925593820180548b831690861617905560038201899055600482018890556005820180549188169185169190911790556006810180549093163317909255426007830155600882018490559150610c898160098101805460ff1916600190811790915590546004805492830181556000527f8a35acfbc15ff81a39ae7d344fd709f28e8600b4aa8c65c6b64bfe7fe36bd19b90910155565b604080516001600160a01b038a81168252898116602083015291810188905260608101879052608081018590524260a0820152339186169084907f3b2269637c42f12505a377a0d29efaefb00c9411648974980da2fbb26c7b63049060c00160405180910390a45050505050505050565b6005546001600160a01b03163314610d245760405162461bcd60e51b81526004016107dc9061287b565b6007819055604080518281524260208201527f74dbbbe280ef27b79a8a0c449d5ae2ba7a31849103241d0f98df70bbc9d03e3791015b60405180910390a150565b6005546001600160a01b03163314610d8f5760405162461bcd60e51b81526004016107dc9061287b565b6006819055604080518281524260208201527fc945f955f4b409eaa1a372c180a5183dd14966e6b3fc658f45cf7925f42f55889101610d5a565b60006060610dd8858585611784565b915091505b935093915050565b60015460405163e6a4390560e01b81526001600160a01b0384811660048301528381166024830152600092839283929091169063e6a439059060440160206040518083038186803b158015610e3957600080fd5b505afa158015610e4d573d6000803e3d6000fd5b505050506040513d601f19601f82011682018060405250810190610e71919061244b565b9050600080826001600160a01b0316630902f1ac6040518163ffffffff1660e01b815260040160606040518083038186803b158015610eaf57600080fd5b505afa158015610ec3573d6000803e3d6000fd5b505050506040513d601f19601f82011682018060405250810190610ee7919061267f565b506001600160701b031691506001600160701b03169150856001600160a01b0316876001600160a01b031610610f1e578082610f21565b81815b945094505050509250929050565b60606004805480602002602001604051908101604052809291908181526020018280548015610f7d57602002820191906000526020600020905b815481526020019060010190808311610f69575b5050505050905090565b6005546001600160a01b03163314610fb15760405162461bcd60e51b81526004016107dc9061287b565b6001600160a01b0381166110165760405162461bcd60e51b815260206004820152602660248201527f4f776e61626c653a206e6577206f776e657220697320746865207a65726f206160448201526564647265737360d01b60648201526084016107dc565b61101f81611cce565b50565b6005546001600160a01b0316331461104c5760405162461bcd60e51b81526004016107dc9061287b565b6001600160a01b03811661109b5760405162461bcd60e51b8152602060048201526016602482015275496e76616c69642066656520746f206164647265737360501b60448201526064016107dc565b600880546001600160a01b0319166001600160a01b038316908117909155604080519182524260208301527f539120415038145f3e401357c9a1eabb383b24bb9ad81cf993ddd07106a6c3639101610d5a565b600260095414156111415760405162461bcd60e51b815260206004820152601f60248201527f5265656e7472616e637947756172643a207265656e7472616e742063616c6c0060448201526064016107dc565b60026009819055600084815260209190915260408082206001810154600682015492516370a0823160e01b81526001600160a01b03938416600482015291939216906370a082319060240160206040518083038186803b1580156111a457600080fd5b505afa1580156111b8573d6000803e3d6000fd5b505050506040513d601f19601f820116820180604052508101906111dc91906126cd565b905081600301548110156112295760405162461bcd60e51b8152602060048201526014602482015273496e73756666696369656e742062616c616e636560601b60448201526064016107dc565b60018201546006830154604051636eb1769f60e11b81526001600160a01b039182166004820152306024820152600092919091169063dd62ed3e9060440160206040518083038186803b15801561127f57600080fd5b505afa158015611293573d6000803e3d6000fd5b505050506040513d601f19601f820116820180604052508101906112b791906126cd565b905082600301548110156113065760405162461bcd60e51b8152602060048201526016602482015275496e73756666696369656e7420616c6c6f77616e636560501b60448201526064016107dc565b826008015442111561134a5760405162461bcd60e51b815260206004820152600d60248201526c22bc3834b932b21037b93232b960991b60448201526064016107dc565b6001600984015460ff16600381111561137357634e487b7160e01b600052602160045260246000fd5b146113b15760405162461bcd60e51b815260206004820152600e60248201526d496e76616c69642073746174757360901b60448201526064016107dc565b600185511180156114025750600183015485516001600160a01b039091169086906000906113ef57634e487b7160e01b600052603260045260246000fd5b60200260200101516001600160a01b0316145b801561145b5750600283015485516001600160a01b0390911690869061142a906001906129b1565b8151811061144857634e487b7160e01b600052603260045260246000fd5b60200260200101516001600160a01b0316145b6114a75760405162461bcd60e51b815260206004820152601c60248201527f496e76616c6964207061746820746f206f757470757420746f6b656e0000000060448201526064016107dc565b60018301547f00000000000000000000000000000000000000000000000000000000000000006001600160a01b039081169116148015906114e9575060018451115b156115ef57600183015484516001600160a01b0390911690859060009061152057634e487b7160e01b600052603260045260246000fd5b60200260200101516001600160a01b03161480156115a357507f00000000000000000000000000000000000000000000000000000000000000006001600160a01b0316846001865161157291906129b1565b8151811061159057634e487b7160e01b600052603260045260246000fd5b60200260200101516001600160a01b0316145b6115ef5760405162461bcd60e51b815260206004820152601a60248201527f496e76616c6964207061746820746f204d61746520746f6b656e00000000000060448201526064016107dc565b6000806115ff8560030154610640565b9150915060008183876003015461161691906129b1565b61162091906129b1565b9050600061162e828a610578565b905086600401548110156116845760405162461bcd60e51b815260206004820152601a60248201527f496e73756666696369656e74206f757470757420616d6f756e7400000000000060448201526064016107dc565b60098701805460ff191660021790556006870154600388015460018901546116bc926001600160a01b03918216929116903090611e10565b600487015460058801546116dd918b918591906001600160a01b0316611e81565b6117175760405162461bcd60e51b815260206004820152600b60248201526a14ddd85c0819985a5b195960aa1b60448201526064016107dc565b600187015461173390859085906001600160a01b03168b611f77565b61173c8a611d20565b60405142815233908b907fe96da7d7f9b1253f3f855c25f35f32d0a83a96c1a75acdecf0f3bc7cc3bb1ccf9060200160405180910390a3505060016009555050505050505050565b6000838152600260205260408082206001810154600682015492516370a0823160e01b81526001600160a01b039384166004820152606093859216906370a082319060240160206040518083038186803b1580156117e157600080fd5b505afa1580156117f5573d6000803e3d6000fd5b505050506040513d601f19601f8201168201806040525081019061181991906126cd565b9050816003015481101561186157600060405180604001604052806014815260200173496e73756666696369656e742062616c616e636560601b815250935093505050610ddd565b60018201546006830154604051636eb1769f60e11b81526001600160a01b039182166004820152306024820152600092919091169063dd62ed3e9060440160206040518083038186803b1580156118b757600080fd5b505afa1580156118cb573d6000803e3d6000fd5b505050506040513d601f19601f820116820180604052508101906118ef91906126cd565b9050826003015481101561193a57600060405180604001604052806016815260200175496e73756666696369656e7420616c6c6f77616e636560501b81525094509450505050610ddd565b826008015442111561197a5760006040518060400160405280600d81526020016c22bc3834b932b21037b93232b960991b81525094509450505050610ddd565b6001600984015460ff1660038111156119a357634e487b7160e01b600052602160045260246000fd5b146119dd5760006040518060400160405280600e81526020016d496e76616c69642073746174757360901b81525094509450505050610ddd565b600187511080611a2e5750600183015487516001600160a01b03909116908890600090611a1a57634e487b7160e01b600052603260045260246000fd5b60200260200101516001600160a01b031614155b80611a875750600283015487516001600160a01b03909116908890611a55906001906129b1565b81518110611a7357634e487b7160e01b600052603260045260246000fd5b60200260200101516001600160a01b031614155b15611ad05760006040518060400160405280601c81526020017f496e76616c6964207061746820746f206f757470757420746f6b656e0000000081525094509450505050610ddd565b60018301547f00000000000000000000000000000000000000000000000000000000000000006001600160a01b03908116911614801590611b12575060018651115b15611c1657600183015486516001600160a01b03909116908790600090611b4957634e487b7160e01b600052603260045260246000fd5b60200260200101516001600160a01b0316141580611bcd57507f00000000000000000000000000000000000000000000000000000000000000006001600160a01b03168660018851611b9b91906129b1565b81518110611bb957634e487b7160e01b600052603260045260246000fd5b60200260200101516001600160a01b031614155b15611c165760006040518060400160405280601a81526020017f496e76616c6964207061746820746f204d61746520746f6b656e00000000000081525094509450505050610ddd565b600080611c268560030154610640565b91509150600081838760030154611c3d91906129b1565b611c4791906129b1565b90506000611c55828c610578565b90508660040154811015611cab5760006040518060400160405280601a81526020017f496e73756666696369656e74206f757470757420616d6f756e740000000000008152509850985050505050505050610ddd565b505060408051602081019091526000815260019b909a5098505050505050505050565b600580546001600160a01b038381166001600160a01b0319831681179093556040519116919082907f8be0079c531659141344cd1fd0a4f28419497f9722a3daafe3b4186f6b6457e090600090a35050565b60045460005b8181101561068d578260048281548110611d5057634e487b7160e01b600052603260045260246000fd5b90600052602060002001541415611dfe576004611d6e6001846129b1565b81548110611d8c57634e487b7160e01b600052603260045260246000fd5b906000526020600020015460048281548110611db857634e487b7160e01b600052603260045260246000fd5b6000918252602090912001556004805480611de357634e487b7160e01b600052603160045260246000fd5b60019003818190600052602060002001600090559055505050565b80611e08816129f4565b915050611d26565b6040516001600160a01b0380851660248301528316604482015260648101829052611e7b9085906323b872dd60e01b906084015b60408051601f198184030181529190526020810180516001600160e01b03166001600160e01b03199093169290921790915261205e565b50505050565b600080548551611ed5916001600160a01b031690869088908590611eb557634e487b7160e01b600052603260045260246000fd5b60200260200101516001600160a01b03166121309092919063ffffffff16565b6000546001600160a01b03166338ed173985858886611ef542607861295a565b6040518663ffffffff1660e01b8152600401611f159594939291906128c9565b600060405180830381600087803b158015611f2f57600080fd5b505af1158015611f43573d6000803e3d6000fd5b505050506040513d6000823e601f3d908101601f19168201604052611f6b9190810190612505565b50600195945050505050565b8315611f9757600854611f97906001600160a01b038481169116866121f1565b8215611e7b577f00000000000000000000000000000000000000000000000000000000000000006001600160a01b0316826001600160a01b03161480611fdf57506001815111155b15611ffd57611ff86001600160a01b03831633856121f1565b611e7b565b612012818461200c8685610578565b33611e81565b611e7b5760405162461bcd60e51b815260206004820152601860248201527f4578656375746f72206665652073776170206661696c6564000000000000000060448201526064016107dc565b60006120b3826040518060400160405280602081526020017f5361666545524332303a206c6f772d6c6576656c2063616c6c206661696c6564815250856001600160a01b03166122219092919063ffffffff16565b80519091501561068d57808060200190518101906120d19190612598565b61068d5760405162461bcd60e51b815260206004820152602a60248201527f5361666545524332303a204552433230206f7065726174696f6e20646964206e6044820152691bdd081cdd58d8d9595960b21b60648201526084016107dc565b604051636eb1769f60e11b81523060048201526001600160a01b038381166024830152600091839186169063dd62ed3e9060440160206040518083038186803b15801561217c57600080fd5b505afa158015612190573d6000803e3d6000fd5b505050506040513d601f19601f820116820180604052508101906121b491906126cd565b6121be919061295a565b6040516001600160a01b038516602482015260448101829052909150611e7b90859063095ea7b360e01b90606401611e44565b6040516001600160a01b03831660248201526044810182905261068d90849063a9059cbb60e01b90606401611e44565b6060612230848460008561223a565b90505b9392505050565b60608247101561229b5760405162461bcd60e51b815260206004820152602660248201527f416464726573733a20696e73756666696369656e742062616c616e636520666f6044820152651c8818d85b1b60d21b60648201526084016107dc565b843b6122e95760405162461bcd60e51b815260206004820152601d60248201527f416464726573733a2063616c6c20746f206e6f6e2d636f6e747261637400000060448201526064016107dc565b600080866001600160a01b031685876040516123059190612776565b60006040518083038185875af1925050503d8060008114612342576040519150601f19603f3d011682016040523d82523d6000602084013e612347565b606091505b5091509150612357828286612362565b979650505050505050565b60608315612371575081612233565b8251156123815782518084602001fd5b8160405162461bcd60e51b81526004016107dc9190612868565b600082601f8301126123ab578081fd5b813560206123c06123bb83612936565b612905565b80838252828201915082860187848660051b89010111156123df578586fd5b855b858110156124065781356123f481612a3b565b845292840192908401906001016123e1565b5090979650505050505050565b80516001600160701b038116811461242a57600080fd5b919050565b600060208284031215612440578081fd5b813561223381612a3b565b60006020828403121561245c578081fd5b815161223381612a3b565b60008060408385031215612479578081fd5b823561248481612a3b565b9150602083013561249481612a3b565b809150509250929050565b60008060008060008060c087890312156124b7578182fd5b86356124c281612a3b565b955060208701356124d281612a3b565b9450604087013593506060870135925060808701356124f081612a3b565b8092505060a087013590509295509295509295565b60006020808385031215612517578182fd5b825167ffffffffffffffff81111561252d578283fd5b8301601f8101851361253d578283fd5b805161254b6123bb82612936565b80828252848201915084840188868560051b870101111561256a578687fd5b8694505b8385101561258c57805183526001949094019391850191850161256e565b50979650505050505050565b6000602082840312156125a9578081fd5b81518015158114612233578182fd5b6000602082840312156125c9578081fd5b5035919050565b600080604083850312156125e2578182fd5b82359150602083013567ffffffffffffffff8111156125ff578182fd5b61260b8582860161239b565b9150509250929050565b600080600060608486031215612629578283fd5b83359250602084013567ffffffffffffffff80821115612647578384fd5b6126538783880161239b565b93506040860135915080821115612668578283fd5b506126758682870161239b565b9150509250925092565b600080600060608486031215612693578283fd5b61269c84612413565b92506126aa60208501612413565b9150604084015163ffffffff811681146126c2578182fd5b809150509250925092565b6000602082840312156126de578081fd5b5051919050565b6000815180845260208085019450808401835b8381101561271d5781516001600160a01b0316875295820195908201906001016126f8565b509495945050505050565b6004811061274657634e487b7160e01b600052602160045260246000fd5b9052565b600081518084526127628160208601602086016129c8565b601f01601f19169290920160200192915050565b600082516127888184602087016129c8565b9190910192915050565b6020808252825182820181905260009190848201906040850190845b818110156127ca578351835292840192918401916001016127ae565b50909695505050505050565b8215158152604060208201526000612230604083018461274a565b8a81526001600160a01b038a811660208301528981166040830152606082018990526080820188905286811660a0830152851660c082015260e081018490526101008101839052610140810161284b610120830184612728565b9b9a5050505050505050505050565b6020810161063a8284612728565b602081526000612233602083018461274a565b6020808252818101527f4f776e61626c653a2063616c6c6572206973206e6f7420746865206f776e6572604082015260600190565b82815260406020820152600061223060408301846126e5565b85815284602082015260a0604082015260006128e860a08301866126e5565b6001600160a01b0394909416606083015250608001529392505050565b604051601f8201601f1916810167ffffffffffffffff8111828210171561292e5761292e612a25565b604052919050565b600067ffffffffffffffff82111561295057612950612a25565b5060051b60200190565b6000821982111561296d5761296d612a0f565b500190565b60008261298d57634e487b7160e01b81526012600452602481fd5b500490565b60008160001904831182151516156129ac576129ac612a0f565b500290565b6000828210156129c3576129c3612a0f565b500390565b60005b838110156129e35781810151838201526020016129cb565b83811115611e7b5750506000910152565b6000600019821415612a0857612a08612a0f565b5060010190565b634e487b7160e01b600052601160045260246000fd5b634e487b7160e01b600052604160045260246000fd5b6001600160a01b038116811461101f57600080fdfea2646970667358221220a081f8ef96382574024a7e9f6288d451c99023e2ff65a1c43d56c9232ee9e12064736f6c63430008040033",
  "devdoc": {
    "kind": "dev",
    "methods": {
      "getAmountOutMin(uint256,address[])": {
        "details": "Function to get the minumum amount from a swap",
        "params": {
          "_amountIn": "Amount of input token",
          "_path": "An array of addresses from tokenIn to tokenOut"
        },
        "returns": {
          "_0": "Minumim amount out"
        }
      },
      "owner()": {
        "details": "Returns the address of the current owner."
      },
      "renounceOwnership()": {
        "details": "Leaves the contract without owner. It will not be possible to call `onlyOwner` functions anymore. Can only be called by the current owner. NOTE: Renouncing ownership will leave the contract without an owner, thereby removing any functionality that is only available to the owner."
      },
      "transferOwnership(address)": {
        "details": "Transfers ownership of the contract to a new account (`newOwner`). Can only be called by the current owner."
      }
    },
    "version": 1
  },
  "userdoc": {
    "kind": "user",
    "methods": {},
    "version": 1
  },
  "storageLayout": {
    "storage": [
      {
        "astId": 6073,
        "contract": "contracts/core/MateCore.sol:MateCore",
        "label": "router",
        "offset": 0,
        "slot": "0",
        "type": "t_contract(IUniswapV2Router02)4296"
      },
      {
        "astId": 6076,
        "contract": "contracts/core/MateCore.sol:MateCore",
        "label": "factory",
        "offset": 0,
        "slot": "1",
        "type": "t_contract(IUniswapV2Factory)3658"
      },
      {
        "astId": 5443,
        "contract": "contracts/core/MateCore.sol:MateCore",
        "label": "orders",
        "offset": 0,
        "slot": "2",
        "type": "t_mapping(t_bytes32,t_struct(Order)5438_storage)"
      },
      {
        "astId": 5447,
        "contract": "contracts/core/MateCore.sol:MateCore",
        "label": "_nonces",
        "offset": 0,
        "slot": "3",
        "type": "t_mapping(t_address,t_uint256)"
      },
      {
        "astId": 5450,
        "contract": "contracts/core/MateCore.sol:MateCore",
        "label": "openOrders",
        "offset": 0,
        "slot": "4",
        "type": "t_array(t_bytes32)dyn_storage"
      },
      {
        "astId": 591,
        "contract": "contracts/core/MateCore.sol:MateCore",
        "label": "_owner",
        "offset": 0,
        "slot": "5",
        "type": "t_address"
      },
      {
        "astId": 4307,
        "contract": "contracts/core/MateCore.sol:MateCore",
        "label": "executorFeeNumerator",
        "offset": 0,
        "slot": "6",
        "type": "t_uint256"
      },
      {
        "astId": 4310,
        "contract": "contracts/core/MateCore.sol:MateCore",
        "label": "feeNumerator",
        "offset": 0,
        "slot": "7",
        "type": "t_uint256"
      },
      {
        "astId": 4312,
        "contract": "contracts/core/MateCore.sol:MateCore",
        "label": "feeTo",
        "offset": 0,
        "slot": "8",
        "type": "t_address"
      },
      {
        "astId": 790,
        "contract": "contracts/core/MateCore.sol:MateCore",
        "label": "_status",
        "offset": 0,
        "slot": "9",
        "type": "t_uint256"
      }
    ],
    "types": {
      "t_address": {
        "encoding": "inplace",
        "label": "address",
        "numberOfBytes": "20"
      },
      "t_array(t_bytes32)dyn_storage": {
        "base": "t_bytes32",
        "encoding": "dynamic_array",
        "label": "bytes32[]",
        "numberOfBytes": "32"
      },
      "t_bytes32": {
        "encoding": "inplace",
        "label": "bytes32",
        "numberOfBytes": "32"
      },
      "t_contract(IUniswapV2Factory)3658": {
        "encoding": "inplace",
        "label": "contract IUniswapV2Factory",
        "numberOfBytes": "20"
      },
      "t_contract(IUniswapV2Router02)4296": {
        "encoding": "inplace",
        "label": "contract IUniswapV2Router02",
        "numberOfBytes": "20"
      },
      "t_enum(Status)5416": {
        "encoding": "inplace",
        "label": "enum OrderBook.Status",
        "numberOfBytes": "1"
      },
      "t_mapping(t_address,t_uint256)": {
        "encoding": "mapping",
        "key": "t_address",
        "label": "mapping(address => uint256)",
        "numberOfBytes": "32",
        "value": "t_uint256"
      },
      "t_mapping(t_bytes32,t_struct(Order)5438_storage)": {
        "encoding": "mapping",
        "key": "t_bytes32",
        "label": "mapping(bytes32 => struct OrderBook.Order)",
        "numberOfBytes": "32",
        "value": "t_struct(Order)5438_storage"
      },
      "t_struct(Order)5438_storage": {
        "encoding": "inplace",
        "label": "struct OrderBook.Order",
        "members": [
          {
            "astId": 5418,
            "contract": "contracts/core/MateCore.sol:MateCore",
            "label": "id",
            "offset": 0,
            "slot": "0",
            "type": "t_bytes32"
          },
          {
            "astId": 5420,
            "contract": "contracts/core/MateCore.sol:MateCore",
            "label": "tokenIn",
            "offset": 0,
            "slot": "1",
            "type": "t_address"
          },
          {
            "astId": 5422,
            "contract": "contracts/core/MateCore.sol:MateCore",
            "label": "tokenOut",
            "offset": 0,
            "slot": "2",
            "type": "t_address"
          },
          {
            "astId": 5424,
            "contract": "contracts/core/MateCore.sol:MateCore",
            "label": "amountIn",
            "offset": 0,
            "slot": "3",
            "type": "t_uint256"
          },
          {
            "astId": 5426,
            "contract": "contracts/core/MateCore.sol:MateCore",
            "label": "amountOutMin",
            "offset": 0,
            "slot": "4",
            "type": "t_uint256"
          },
          {
            "astId": 5428,
            "contract": "contracts/core/MateCore.sol:MateCore",
            "label": "recipient",
            "offset": 0,
            "slot": "5",
            "type": "t_address"
          },
          {
            "astId": 5430,
            "contract": "contracts/core/MateCore.sol:MateCore",
            "label": "creator",
            "offset": 0,
            "slot": "6",
            "type": "t_address"
          },
          {
            "astId": 5432,
            "contract": "contracts/core/MateCore.sol:MateCore",
            "label": "createdAt",
            "offset": 0,
            "slot": "7",
            "type": "t_uint256"
          },
          {
            "astId": 5434,
            "contract": "contracts/core/MateCore.sol:MateCore",
            "label": "expiration",
            "offset": 0,
            "slot": "8",
            "type": "t_uint256"
          },
          {
            "astId": 5437,
            "contract": "contracts/core/MateCore.sol:MateCore",
            "label": "status",
            "offset": 0,
            "slot": "9",
            "type": "t_enum(Status)5416"
          }
        ],
        "numberOfBytes": "320"
      },
      "t_uint256": {
        "encoding": "inplace",
        "label": "uint256",
        "numberOfBytes": "32"
      }
    }
  }
}